:020000040800F2
:1000000098070020CD010008570800084F08000895
:100010005308000887020008BB1500080000000014
:10002000000000000000000000000000A512000811
:100030008B02000800000000590800089113000816
:10004000E7010008E7010008E7010008E7010008F0
:10005000E7010008E7010008E7010008E7010008E0
:10006000E7010008E7010008E7010008E7010008D0
:10007000E7010008E7010008E7010008E7010008C0
:10008000E7010008E7010008E7010008E7010008B0
:10009000E7010008E7010008E7010008E7010008A0
:1000A000E7010008E7010008E7010008E701000890
:1000B000E7010008F513000811140008E701000823
:1000C000E7010008E7010008E7010008E701000870
:1000D000E701000871140008CD140008E7010008CA
:1000E000E7010008E7010008E7010008E701000850
:1000F000E7010008E7010008E7010008E701000840
:10010000E7010008E7010008E7010008E70100082F
:10011000E7010008E7010008E7010008E70100081F
:10012000E7010008E7010008E7010008E70100080F
:1001300000F002F800F03AF80AA090E8000C8244BF
:100140008344AAF10107DA4501D100F02FF8AFF29C
:10015000090EBAE80F0013F0010F18BFFB1A43F0A5
:1001600001031847FC1900001C1A0000103A24BFB4
:1001700078C878C1FAD8520724BF30C830C144BF0C
:1001800004680C607047000000230024002500264E
:10019000103A28BF78C1FBD8520728BF30C148BFEA
:1001A0000B6070471FB51FBD10B510BD00F031F8D2
:1001B0001146FFF7F7FF01F002FA00F04FF803B421
:1001C000FFF7F2FF03BC00F057F800000948804732
:1001D00009480047FEE7FEE7FEE7FEE7FEE7FEE729
:1001E000FEE7FEE7FEE7FEE704480549054A064B41
:1001F00070470000951300083101000898010020A5
:10020000980700209803002098030020704770474B
:100210007047754600F02CF8AE4605006946534617
:1002200020F00700854618B020B5FFF7DDFFBDE8D8
:1002300020404FF000064FF000074FF000084FF04D
:10024000000B21F00701AC46ACE8C009ACE8C009DE
:10025000ACE8C009ACE8C0098D46704710B504464B
:10026000AFF300802046BDE81040FFF7A8BF0000B4
:10027000004870473801002001491820ABBEFEE756
:1002800026000200704700BFFEE770470C488069F7
:1002900040F008000A4988610A48006820F00F0011
:1002A000084908600846006840F0030008600548F7
:1002B0000830006820F480700249083108607047F7
:1002C00000100240040C01401348806940F04400D3
:1002D000114988611148006820F00F000F4908603B
:1002E0000846006840F0080008604FF480300B4971
:1002F000103108600A4800686FF31300084908606D
:100300000846006807490843054908605F2004491A
:1003100010310860704700000010024000080140E2
:1003200000180140888808004FF400100149086057
:1003300070470000100C01401648806940F04800EA
:10034000144988611448006820F47000124908605C
:100350000846006840F4401008601048006820F427
:1003600070000E4908600846006840F440100860BC
:1003700009481430006840F0200007491431086033
:1003800006481430006840F0200004491431086029
:100390007047000000100240000C014000180140AE
:1003A000014601F007021202054B18684FF6FF03E1
:1003B0001840044B18431043014B1860704700006D
:1003C0000CED00E00000FA05154AD26942F0040283
:1003D000134BDA61134A1080121F1180114A203A20
:1003E000128842F001020F4B203B1A800D4A2C3A32
:1003F000128842F001020B4B2C3B1A8045230A4A1B
:1004000013700A4A126842F080424FF0E023C3F8AA
:1004100000210022064B1A70064B1A70704700002C
:10042000001002402C0800401EE400E000E100E063
:100430000A0000200B0000200548006840F0200062
:100440004FF0E021C1F804013021024801707047EB
:1004500004E100E025E400E02DE9F05F05460E46EA
:10046000300101F01DFA81462D4905FB01F001F034
:1004700017FA8246494601F031F90746384601F03D
:10048000EFF984B2204601F00BFA8346394601F0B9
:10049000E7FA82464FF0834101F016FA814601F0F7
:1004A000DFF980464FF6FF7000EA041404EB080001
:1004B00084B21C48806940F004001A4988611A48D7
:1004C000006820F47F60184908600846006840F41E
:1004D0000B6008601348C06840F480401149C86050
:1004E0000846C06820F48040C8601048048042F28A
:1004F0000C000E49091D0880012240F224410B48DE
:10050000083801F035F80948001D008840F0200047
:100510000649091D0880002005490870BDE8F09FC4
:1005200040420F000010024004080140083801401A
:10053000010000200548006840F040004FF0E02135
:10054000C1F80401302102480170704704E100E065
:1005500026E400E02DE9F05F05460E46300101F08B
:100560009FF98146274905FB01F001F099F9824680
:10057000494601F0B3F80746384601F071F984B2F4
:10058000204601F08DF98346394601F069FA82462A
:100590004FF0834101F098F9814601F061F98046FE
:1005A0004FF6FF7000EA041404EB080084B216480A
:1005B000806940F00400144988611448006820F400
:1005C0007F40124908600846006840F40B4008600C
:1005D0000D48006940F480200B4908610846006915
:1005E00020F4802008610A48048042F20C00084987
:1005F000091D08800846008840F020000880BDE8FA
:10060000F09F000040420F0000100240000801402F
:1006100008440040072100202D4A126842F480322D
:100620002B4B1A6000BF2A4A1268C2F34042002ACC
:10063000F9D0274A526822F40032254B5A601A46F4
:10064000526842F480325A601A46526842EA814245
:100650005A601A46126842F080721A6000BF1C4A43
:100660001268520E002AFAD0194A526822F001028A
:10067000174B5A601A46526842F002025A6005E06F
:10068000134A5268C2F3870000F003000228F7D132
:100690000F4A526822F47C720D4B5A601A46526817
:1006A00042F480625A601A46526822F400525A603C
:1006B0003222084B1A60064AD26942F40032044BD7
:1006C000DA611A46926942F480429A6170470000EA
:1006D000001002400020024008B50121842000F0F3
:1006E0007DFA3F20ADF8000003208DF802001020B5
:1006F0008DF8030069460C4800F01AF83F210A48BB
:1007000000F0A1F88020ADF8000003208DF8020071
:1007100010208DF803006946044800F009F8802194
:10072000024800F090F808BD001C0140000801409C
:100730002DE9F04102460025002600200023002478
:10074000002791F803C00CF00F0591F803C00CF0DE
:10075000100CBCF1000F03D091F802C04CEA050563
:1007600091F800C0BCF1000F31D0146800202BE0DC
:100770004FF0010C0CFA00F3B1F800C00CEA0306CC
:100780009E4220D183004FF00F0C0CFA03F7BC43BC
:1007900005FA03FC4CEA040491F803C0BCF1280FED
:1007A00006D14FF0010C0CFA00FCC2F814C00AE0AC
:1007B00091F803C0BCF1480F05D14FF0010C0CFAC1
:1007C00000FCC2F810C0401C0828D1D31460B1F856
:1007D00000C0BCF1FF0F34DD546800202EE000F1B2
:1007E000080C4FF0010808FA0CF3B1F800C00CEA4D
:1007F00003069E4221D183004FF00F0C0CFA03F741
:10080000BC4305FA03FC4CEA040491F803C0BCF1B4
:10081000280F05D100F1080C08FA0CF8C2F8148072
:1008200091F803C0BCF1480F07D100F1080C4FF05C
:10083000010808FA0CF8C2F81080401C0828CED332
:100840005460BDE8F081416170470161704700BFAD
:10085000FEE700BFFEE770477047000010B5304864
:100860000078012845D12F480078002856D02E481E
:100870000088401C2C490880084601882B480088C5
:10088000401C814204D101212948FFF7DEFF2CE002
:1008900025480188254800880A30814204D1012179
:1008A0002348FFF7D0FF20E01F4801881F48008839
:1008B0001430814204D101211D48FFF7C6FF14E026
:1008C0001A4800881B490968084417490988884262
:1008D0000BD801211648FFF7B6FF00201249088007
:1008E0000F49087014481349086000200D4908702A
:1008F00014E00B480078022810D101210C48FFF7C2
:10090000A2FF002008490880054908700A480949E3
:1009100008600020054908800249087010BD0000E9
:100920002300002004000020620000202800002096
:10093000001C0140300000209F86010010B53048A7
:100940000078012845D12F480078002856D02E483D
:100950000088401C2C490880084601882B480088E4
:10096000401C814204D102212948FFF76EFF2CE090
:1009700025480188254800880A30814204D1022197
:100980002348FFF760FF20E01F4801881F480088C8
:100990001430814204D102211D48FFF756FF14E0B4
:1009A0001A4800881B490968084417490988884281
:1009B0000BD802211648FFF746FF00201249088095
:1009C0000F49087014481349086000200D49087049
:1009D00014E00B480078022810D102210C48FFF7E0
:1009E00032FF002008490880054908700A48094973
:1009F00008600020054908800249087010BD000009
:100A00002400002005000020640000202A000020AF
:100A1000001C0140340000209F86010010B53048C2
:100A2000007800285AD02F480078012841D12E485C
:100A30000088401C2C490880084601882B48008803
:100A4000401C814204D108212948FFF7FEFE2CE01A
:100A500025480188254800880A30814204D10821B0
:100A60002348FFF7F0FE20E01F4801881F48008858
:100A70001430814204D108211D48FFF7E6FE14E03E
:100A80001A4800881B4909680844174909888842A0
:100A90000BD808211648FFF7D6FE0020124908801F
:100AA0000F49087014481349086000200D49087068
:100AB00014E00B480078022810D108210C48FFF7F9
:100AC000C2FE002008490880054908700A48094903
:100AD00008600020054908800249087010BD000028
:100AE0002500002006000020660000202C000020C9
:100AF000001C0140380000209F86010010B53048DE
:100B0000007800285AD02F480078012841D12E487B
:100B10000088401C2C490880084601882B48008822
:100B2000401C814204D104212948FFF78EFE2CE0AD
:100B300025480188254800880A30814204D10421D3
:100B40002348FFF780FE20E01F4801881F480088E7
:100B50001430814204D104211D48FFF776FE14E0D1
:100B60001A4800881B4909680844174909888842BF
:100B70000BD804211648FFF766FE002012490880B2
:100B80000F49087014481349086000200D49087087
:100B900014E00B480078022810D104210C48FFF71C
:100BA00052FE002008490880054908700A48094992
:100BB00008600020054908800249087010BD000047
:100BC0002600002007000020680000202E000020E2
:100BD000001C01403C0000209F86010029B1064A0C
:100BE00092690243044B9A6104E0034A926982438A
:100BF000014B9A61704700000010024010B5F848A0
:100C0000007800287ED0F748007803287BDCF6487F
:100C1000007823281BD1F4484078242817D10120DC
:100C2000F249087000240EE0EF48005DF0490880AA
:100C300000BFEF48001F0088C0F3C0100028F8D0A4
:100C4000FFF772FB641CE74800788442ECDBE6485F
:100C50000078792806D1E4484078782802D101202C
:100C6000E4490870E0480078732806D1DE484078EF
:100C7000742802D10120DD490870DB480078702813
:100C80000CD1D9484078312808D10120DA490870C0
:100C90000020DA490880DA48DA490860D24800784A
:100CA00070280CD1D0484078322808D10120D6498C
:100CB00008700020D5490880D148D5490860CA4845
:100CC000007870280CD1C8484078332808D101201A
:100CD000D04908700020D0490880C948CF49086031
:100CE000C148007870280CD1BF484078342808D11A
:100CF0000120CB4908700020CA490880C048CA4971
:100D0000086001E0A2E24DE0B7480078732809D1FD
:100D1000B5484078312805D10220B7490870B84855
:100D2000B8490860B0480078732809D1AE484078C7
:100D3000322805D10220B4490870B148B44908608E
:100D4000A9480078732809D1A7484078332805D1ED
:100D50000220B0490870AA48B0490860A24800784B
:100D6000732809D1A0484078342805D10220AC4925
:100D70000870A348AC4908609B480078752806D1E4
:100D800099484078762802D10120A84908709648F1
:100D90000078762806D194484078752802D1002042
:100DA000A24908708F480078092870D18E480078D1
:100DB0002328FAD18C48C07830380A282ED2DFE8B0
:100DC00000F005090D1115191D212529002098494C
:100DD000087027E001209649087023E0022094491A
:100DE00008701FE00320924908701BE0042090491E
:100DF000087017E005208E49087013E006208C4922
:100E000008700FE007208A4908700BE00820884925
:100E1000087007E009208649087003E00020844933
:100E2000087000BF00BF7048007930380A282FD200
:100E3000DFE800F005090D1115191D2125290020F5
:100E40007C49087028E001207A49087024E00220DB
:100E50007849087020E00320764908701CE00420DF
:100E60007449087018E005207249087014E00620E3
:100E70007049087010E007206E4908700CE00820E7
:100E80006C49087008E009206A49087004E0D7E15D
:100E900000206849087000BF00BF534840793038CF
:100EA0000A282ED2DFE800F005090D1115191D21C1
:100EB000252900206049087027E001205E4908705C
:100EC00023E002205C4908701FE003205A490870A3
:100ED0001BE004205849087017E0052056490870A7
:100EE00013E00620544908700FE0072052490870AB
:100EF0000BE008205049087007E009204E490870AF
:100F000003E000204C49087000BF00BF36488079DC
:100F100030380A282ED2DFE800F005090D11151926
:100F20001D21252900204549087027E0012043495B
:100F3000087023E00220414908701FE003203F4968
:100F400008701BE004203D49087017E005203B496C
:100F5000087013E00620394908700FE00720374970
:100F600008700BE008203549087007E00920334974
:100F7000087003E000203149087000BF00BF1A4824
:100F8000C07930380A2861D2DFE800F005090D1178
:100F900015191D21255C0020294908705AE00120FF
:100FA0002749087056E002202549087052E00320C6
:100FB000234908704EE00420214908704AE00520CA
:100FC0001F49087046E006201D49087042E00720CE
:100FD0001B4908703EE00820194908703AE00000FB
:100FE00001000020000000207000002021000020EF
:100FF000043801401E0000202300002028000020AB
:101000009F86010030000020240000202A000020DC
:1010100034000020250000202C0000203800002093
:10102000260000202E0000203C000020420000206E
:101030004A0000204B0000204C0000204700002008
:101040004800002009208249087003E00020804900
:10105000087000BF00BF7F48007A30380A282ED2BF
:10106000DFE800F005090D1115191D2125290020C3
:101070007949087027E001207749087023E00220B1
:10108000754908701FE00320734908701BE00420B5
:101090007149087017E005206F49087013E00620B9
:1010A0006D4908700FE007206B4908700BE00820BD
:1010B0006949087007E009206749087003E00020CB
:1010C0006549087000BF00BF6248407870282AD187
:1010D00060488078312826D1012060490870604836
:1010E000007842F2107148435E4909784FF47A72F1
:1010F00002FB01005C490978642202FB01005B49A4
:1011000008805B48007842F21071484350490978E2
:101110004FF47A7202FB01004F490978642202FB06
:101120000100544908604B48407870282AD149484A
:101130008078322826D101204F490870484800782D
:1011400042F210714843474909784FF47A7202FB22
:10115000010045490978642202FB010047490880E3
:101160004348007842F210714843394909784FF4F6
:101170007A7202FB010038490978642202FB0100FF
:101180003F4908603348407870282AD13148807838
:10119000332826D101203B4908703148007842F2BB
:1011A000107148432F4909784FF47A7202FB01000D
:1011B0002D490978642202FB0100334908802C483C
:1011C000007842F210714843214909784FF47A724D
:1011D00002FB010020490978642202FB01002B492F
:1011E00008601C48407870282AD11A488078342832
:1011F00026D10120264908701948007842F2107162
:101200004843184909784FF47A7202FB01001649E5
:101210000978642202FB01001E4908801448007806
:1012200042F2107148430A4909784FF47A7202FB7E
:10123000010009490978642202FB0100164908608F
:101240000020164908701649087000BF10BD000044
:1012500048000020700000204900002023000020EA
:101260004A0000204B0000204C00002028000020F5
:101270004700002030000020240000202A00002029
:1012800034000020250000202C0000203800002021
:10129000260000202E0000203C000020010000203D
:1012A00000000020704710B500F002F810BD0000EB
:1012B0000CB50020019000903348006840F4803065
:1012C0003149086000BF3048006800F400300090E9
:1012D0000198401C0190009818B90198B0F5A06FD2
:1012E000F1D12948006800F4003010B101200090CD
:1012F00001E0002000900098012843D123480068B5
:1013000040F01000214908600846006820F0030002
:1013100008600846006840F0020008601A4840680B
:10132000194948600846406848600846406840F4EB
:10133000806048600846406820F47C104860084699
:10134000406840F4E81048600846006840F080704B
:10135000086000BF0C48006800F000700028F9D059
:101360000948406820F00300074948600846406883
:1013700040F00200486000BF0348406800F00C00E5
:101380000828F9D10CBD00000010024000200240E6
:101390007047000010B51348006840F00100114983
:1013A000086008464068104908400E4948600846F1
:1013B00000680E4908400B4908600846006820F4A0
:1013C000802008600846406820F4FE0048604FF422
:1013D0001F008860FFF767FF4FF000600449086056
:1013E00010BD0000001002400000FFF8FFFFF6FEF5
:1013F00008ED00E00548008800F0010028B103482E
:10140000008820F001000149088070471004004066
:101410001048008800F00100D8B101200E49087082
:101420000E4908700E4908700E4908700E48007881
:1014300048B10D480078401EC0B20B49087010B981
:1014400001200A4908700348008820F00100014982
:1014500008807047100800400400002005000020AC
:1014600006000020070000200A00002001000020E4
:1014700010B500BF40F22551104800F04FF860B1A0
:101480000E48001D0088C1B20D4802780078401C4B
:101490000B4B18700B4881540FE040F22441074871
:1014A00000F03CF848B105480088C4B20348001D6C
:1014B0000088C4B201200449087010BD0038014002
:1014C0000000002070000020010000200E49098863
:1014D00001F02001B1B10C49091D0988C8B20B49BE
:1014E000097864290BDA0121094A117007490A7841
:1014F0000978491C054B19700649885402E00121FE
:10150000054A1170704700000044004002000020AE
:101510000B000020D40000200300002070B502461C
:10152000002400230025002040F66A16B14200D1B5
:1015300000BFC1F3421501F01F03012606FA03F3B1
:10154000012D02D19689334006E0022D02D1168A80
:10155000334001E0968A33400C12012606FA04F467
:101560001688344013B10CB1012000E0002070BD9A
:10157000F0B50346002400260025002040F66A1737
:10158000B94200D100BF1846C1F3421401F01F0652
:10159000012707FA06F5012C01D10C3004E0022CDA
:1015A00001D1103000E014301AB107682F430760F2
:1015B00002E00768AF430760F0BD00BFFEE7FEF73B
:1015C000BBFEFFF789F8FEF761FEFEF77DFEFFF731
:1015D00021F80520FEF7E4FEFEF72EFFFEF7AAFF36
:1015E0004FF416514820FEF737FF4FF416512420D0
:1015F000FEF7B0FF632141F61F40FEF7E5FE09E06C
:10160000FFF7FCFAFFF72AF9FFF798F9FFF776FAE8
:10161000FFF704FAF4E7000090EA010F48BF81F0F9
:10162000004100F12E82421A3CBF801A89184FEA0D
:10163000D0524FF07F4C1CEA410FA2EBD15318BFA0
:101640009CEA026F00F03B804FF0004C4CEA002017
:101650004CEA012121FA03FC10EB0C0C1ED202F122
:10166000FF325FEA1C2040EBC25038BF70471CF0CD
:101670007F0F4FEA400C18BFBCF17F4F38BF704757
:10168000C3F12003994008BF20F00100BCF17F4F57
:1016900038BF7047A0F1C04000F0DDB94FEA3C0010
:1016A000000A40EBC25028BF1CF0FF0F4FEA400C6D
:1016B000E6D018BFBCF17F4F38BF7047EAE79CEA1D
:1016C000026F05D010EA5C0F08BF00F000407047C1
:1016D00010B500F07AF900BF64FBBE3E4FF47F0CFA
:1016E0001CEAD0121EBF1CEAD11392EA0C0F93EA37
:1016F0000C0F00F0858090EA010F48BF42F4807221
:1017000040F4000C41F400002CF07F4120F07F40B9
:1017100000B58142A2EB03020FF2081CACEB504E65
:10172000C0F100009EF800E04FEA4E0E00FB0EFCF8
:1017300038BF49004FEA2C1C02F5FA020CFB0EF3ED
:101740004FEACE1E4FEA112C4FEAC1210EEB635E29
:1017500042EB22420EFB0CFC4FEA1C5300FB031130
:101760004FEA112C4FEA01310EFB0CFC4FEADC4C26
:1017700000FB0C11C14228BF09184CEB03335DF884
:1017800004EB10EB410143EBC250B2F57C0F38BFC4
:10179000704729D512F0F00F1CBF00F1C04000F0D7
:1017A00000407047008182838485868788898B8C7E
:1017B0008D8E8F919293959697999A9C9D9FA0A2BA
:1017C000A3A5A7A8AAACAEB0B2B3B5B7B9BCBEC00A
:1017D000C2C5C7C9CCCED1D4D7D9DCDFE2E6E9ECAB
:1017E000F0F3F7FAFE0000004FEA400C0CF1807CA9
:1017F000BCF17E4F28BF7047B0F1C04000F02BB95C
:1018000090EA010F0CEAD11348BF42F4807262459E
:1018100038BF634507D213F47F0F16D080EA01006A
:1018200000F00040704710B500F0CFF8097EFC3E94
:1018300000F005B880EA010000F00040704780EA3F
:10184000010000F0004000F006B912F47F0F04BF61
:101850000248704780EA010000F0FDB80000C07F38
:10186000C10DD1F19E0206DB4FEA002343F0004395
:1018700023FA02F07047004207D54FEA4001B1F168
:10188000FE4F02D24FF00000704710B500F09DF8F7
:1018900049922480002070476FEA200070470000C2
:1018A000B0FA80F310FA03F2C3F19D030AD0D90510
:1018B00001EB1220530638BF704700F1010008BF4A
:1018C00020F00100704700004FF47F0C1CEAD0129A
:1018D0001EBF1CEAD11392EA0C0F93EA0C0F00F022
:1018E000478090EA010F48BF42F480724FF0004CED
:1018F0004CEA00204CEA012102EB0302A0FB011399
:10190000A2F50002002918BF43F001035B0028BFC5
:101910004FEA330342EB22425FEA132C4CEBC250F6
:101920002EBFBCEB436FB2F57C0F70474FEA036CE0
:10193000BCF1004F08BF20F00100B2F57C0F38BFAA
:1019400070470BD582F0FF0212F5803FC8BF704789
:1019500000F1C040D8BF00F00040704700F5000C17
:101960005FEA4C0C48BF7047B0F1C04000F073B85C
:1019700090EA010F0CEAD11348BF42F4807262452D
:1019800038BF634504D280EA010000F00040704790
:1019900010B500F01AF800BF8900013E00F007B84A
:1019A00000F009B85FEA410C5FEA1C6C08D080EADD
:1019B000010000F050B85FEA400C5FEA1C6CF6D101
:1019C0004FF00040A0F5800070470EF1020E2EF09F
:1019D000030E5EF8044B244204D44FEA4102B2F1F4
:1019E0007F4F11D84FEA4003B3F17F4F0CD80ED18F
:1019F0004FEAD07CB2F17F4F0CEB4C0C0CF1020C97
:101A000008BF4CEBD17C04E04FF0080C01E04FEA3A
:101A1000D17C0CEB4C0324FA03F404F00704B4F17A
:101A2000040C06D20EEB840CBDE810404CF0010C07
:101A30006047DFE80CF0070802024FF00040A0F515
:101A4000800010BD0846420018BFD2F1807288BFE6
:101A500000F0004010BDFF2141EAD050C0057047A2
:101A600080F0004090EA010F7FF5DDAD81F000418C
:101A700000F007B890EA010F48BF81F000413FF540
:101A8000D2AD421A04D882F00042A0EB0200114409
:101A90004FEAD0524FF07F4C1CEA410FA2EBD153DA
:101AA00018BF9CEA026F4AD04FF0004C4CEA00206D
:101AB0004CEA012121FA03FCB0EB0C0C0FD412F01C
:101AC000FE0F36D05FEA4C001DD5001240EBC2502D
:101AD00038BF70471CF03F0F18BF70470BE0A2F1F2
:101AE00001025FEA1C2040EBC25038BF70471CF077
:101AF0007F0F18BF7047C3F12003994014BF401EE9
:101B000020F00100704780084FEA122308BF704799
:101B1000B0FA80FCA2EB0C02CCF1280C60FA0CF0BD
:101B200093EA122F04BF00EBC25070474FEAC37014
:101B30007047130A5FEADC1008BF7047F6E79CEABB
:101B4000026F04D010EA5C0F08BF0020704710B588
:101B5000FFF73BFF40DFF63E81F00040704700009A
:101B6000801B000800000020700000006C010008CD
:101B7000F01B000870000020280700008801000802
:101B80000000000000000000000000000000000055
:101B900000000000232323242424262626000000FE
:101BA0000000000000000000000000000000000035
:101BB0000000000000000000000000000000000025
:101BC0000000000000000000000000000000000015
:101BD0000000000000000000000000000000000005
:101BE00000000000000000000000000000000000F5
:04000005080001CD21
:00000001FF
