:020000040800F2
:1000000090070020CD010008570800084F0800089D
:100010005308000887020008B71500080000000018
:10002000000000000000000000000000A112000815
:100030008B02000800000000590800088D1300081A
:10004000E7010008E7010008E7010008E7010008F0
:10005000E7010008E7010008E7010008E7010008E0
:10006000E7010008E7010008E7010008E7010008D0
:10007000E7010008E7010008E7010008E7010008C0
:10008000E7010008E7010008E7010008E7010008B0
:10009000E7010008E7010008E7010008E7010008A0
:1000A000E7010008E7010008E7010008E701000890
:1000B000E7010008F11300080D140008E70100082B
:1000C000E7010008E7010008E7010008E701000870
:1000D000E70100086D140008C9140008E7010008D2
:1000E000E7010008E7010008E7010008E701000850
:1000F000E7010008E7010008E7010008E701000840
:10010000E7010008E7010008E7010008E70100082F
:10011000E7010008E7010008E7010008E70100081F
:10012000E7010008E7010008E7010008E70100080F
:1001300000F002F800F03AF80AA090E8000C8244BF
:100140008344AAF10107DA4501D100F02FF8AFF29C
:10015000090EBAE80F0013F0010F18BFFB1A43F0A5
:1001600001031847F8190000181A0000103A24BFBC
:1001700078C878C1FAD8520724BF30C830C144BF0C
:1001800004680C607047000000230024002500264E
:10019000103A28BF78C1FBD8520728BF30C148BFEA
:1001A0000B6070471FB51FBD10B510BD00F031F8D2
:1001B0001146FFF7F7FF01F000FA00F04FF803B423
:1001C000FFF7F2FF03BC00F057F800000948804732
:1001D00009480047FEE7FEE7FEE7FEE7FEE7FEE729
:1001E000FEE7FEE7FEE7FEE704480549054A064B41
:1001F00070470000911300083101000890010020B1
:100200009007002090030020900300207047704763
:100210007047754600F02CF8AE4605006946534617
:1002200020F00700854618B020B5FFF7DDFFBDE8D8
:1002300020404FF000064FF000074FF000084FF04D
:10024000000B21F00701AC46ACE8C009ACE8C009DE
:10025000ACE8C009ACE8C0098D46704710B504464B
:10026000AFF300802046BDE81040FFF7A8BF0000B4
:10027000004870473001002001491820ABBEFEE75E
:1002800026000200704700BFFEE770470C488069F7
:1002900040F008000A4988610A48006820F00F0011
:1002A000084908600846006840F0030008600548F7
:1002B0000830006820F480700249083108607047F7
:1002C00000100240040C01401348806940F04400D3
:1002D000114988611148006820F00F000F4908603B
:1002E0000846006840F0080008604FF480300B4971
:1002F000103108600A4800686FF31300084908606D
:100300000846006807490843054908605F2004491A
:1003100010310860704700000010024000080140E2
:1003200000180140888808004FF400100149086057
:1003300070470000100C01401648806940F04800EA
:10034000144988611448006820F47000124908605C
:100350000846006840F4401008601048006820F427
:1003600070000E4908600846006840F440100860BC
:1003700009481430006840F0200007491431086033
:1003800006481430006840F0200004491431086029
:100390007047000000100240000C014000180140AE
:1003A000014601F007021202054B18684FF6FF03E1
:1003B0001840044B18431043014B1860704700006D
:1003C0000CED00E00000FA05154AD26942F0040283
:1003D000134BDA61134A1080121F1180114A203A20
:1003E000128842F001020F4B203B1A800D4A2C3A32
:1003F000128842F001020B4B2C3B1A8045230A4A1B
:1004000013700A4A126842F080424FF0E023C3F8AA
:1004100000210022064B1A70064B1A70704700002C
:10042000001002402C0800401EE400E000E100E063
:100430000A0000200B0000200548006840F0200062
:100440004FF0E021C1F804013021024801707047EB
:1004500004E100E025E400E02DE9F05F05460E46EA
:10046000300101F01BFA81462D4905FB01F001F036
:1004700015FA8246494601F02FF90746384601F041
:10048000EDF984B2204601F009FA8346394601F0BD
:10049000E5FA82464FF0834101F014FA814601F0FB
:1004A000DDF980464FF6FF7000EA041404EB080003
:1004B00084B21C48806940F004001A4988611A48D7
:1004C000006820F47F60184908600846006840F41E
:1004D0000B6008601348C06840F480401149C86050
:1004E0000846C06820F48040C8601048048042F28A
:1004F0000C000E49091D0880012240F224410B48DE
:10050000083801F033F80948001D008840F0200049
:100510000649091D0880002005490870BDE8F09FC4
:1005200040420F000010024004080140083801401A
:10053000010000200548006840F040004FF0E02135
:10054000C1F80401302102480170704704E100E065
:1005500026E400E02DE9F05F05460E46300101F08B
:100560009DF98146274905FB01F001F097F9824684
:10057000494601F0B1F80746384601F06FF984B2F8
:10058000204601F08BF98346394601F067FA82462E
:100590004FF0834101F096F9814601F05FF9804602
:1005A0004FF6FF7000EA041404EB080084B216480A
:1005B000806940F00400144988611448006820F400
:1005C0007F40124908600846006840F40B4008600C
:1005D0000D48006940F480200B4908610846006915
:1005E00020F4802008610A48048042F20C00084987
:1005F000091D08800846008840F020000880BDE8FA
:10060000F09F000040420F0000100240000801402F
:1006100008440040072100202D4A126842F480322D
:100620002B4B1A6000BF2A4A1268C2F34042002ACC
:10063000F9D0274A526822F40032254B5A601A46F4
:10064000526842F480325A601A46526842EA814245
:100650005A601A46126842F080721A6000BF1C4A43
:100660001268520E002AFAD0194A526822F001028A
:10067000174B5A601A46526842F002025A6005E06F
:10068000134A5268C2F3870000F003000228F7D132
:100690000F4A526822F47C720D4B5A601A46526817
:1006A00042F480625A601A46526822F400525A603C
:1006B0003222084B1A60064AD26942F40032044BD7
:1006C000DA611A46926942F480429A6170470000EA
:1006D000001002400020024008B50121842000F0F3
:1006E0007DFA3F20ADF8000003208DF802001020B5
:1006F0008DF8030069460C4800F01AF83F210A48BB
:1007000000F0A1F88020ADF8000003208DF8020071
:1007100010208DF803006946044800F009F8802194
:10072000024800F090F808BD001C0140000801409C
:100730002DE9F04102460025002600200023002478
:10074000002791F803C00CF00F0591F803C00CF0DE
:10075000100CBCF1000F03D091F802C04CEA050563
:1007600091F800C0BCF1000F31D0146800202BE0DC
:100770004FF0010C0CFA00F3B1F800C00CEA0306CC
:100780009E4220D183004FF00F0C0CFA03F7BC43BC
:1007900005FA03FC4CEA040491F803C0BCF1280FED
:1007A00006D14FF0010C0CFA00FCC2F814C00AE0AC
:1007B00091F803C0BCF1480F05D14FF0010C0CFAC1
:1007C00000FCC2F810C0401C0828D1D31460B1F856
:1007D00000C0BCF1FF0F34DD546800202EE000F1B2
:1007E000080C4FF0010808FA0CF3B1F800C00CEA4D
:1007F00003069E4221D183004FF00F0C0CFA03F741
:10080000BC4305FA03FC4CEA040491F803C0BCF1B4
:10081000280F05D100F1080C08FA0CF8C2F8148072
:1008200091F803C0BCF1480F07D100F1080C4FF05C
:10083000010808FA0CF8C2F81080401C0828CED332
:100840005460BDE8F081416170470161704700BFAD
:10085000FEE700BFFEE770477047000010B5314863
:100860000078012846D130480078002858D02F4819
:100870000088401C2D490880084601882C480088C3
:10088000401C814204D101212A48FFF7DEFF2DE000
:1008900026480188264800880A30814204D1012177
:1008A0002448FFF7D0FF21E0204801882048008835
:1008B0001430814204D101211E48FFF7C6FF15E024
:1008C0001B4800881C49098808441849098888423F
:1008D0000CDC01211748FFF7B6FF00201349088000
:1008E0001049087042F20F701349088000200E4929
:1008F000087015E00B480078022811D101210D483D
:10090000FFF7A1FF0020094908800649087042F25C
:100910000F700949088000200549088002490870C5
:1009200010BD000023000020040000205A00002019
:1009300028000020001C01403000002010B5314884
:100940000078012846D130480078002858D02F4838
:100950000088401C2D490880084601882C480088E2
:10096000401C814204D102212A48FFF76EFF2DE08E
:1009700026480188264800880A30814204D1022195
:100980002448FFF760FF21E02048018820480088C4
:100990001430814204D102211E48FFF756FF15E0B2
:1009A0001B4800881C49098808441849098888425E
:1009B0000CDC02211748FFF746FF0020134908808E
:1009C0001049087042F20F701349088000200E4948
:1009D000087015E00B480078022811D102210D485B
:1009E000FFF731FF0020094908800649087042F2EC
:1009F0000F700949088000200549088002490870E5
:100A000010BD000024000020050000205C00002034
:100A10002A000020001C01403200002010B531489F
:100A2000007800285CD030480078012842D12F4857
:100A30000088401C2D490880084601882C48008801
:100A4000401C814204D108212A48FFF7FEFE2DE018
:100A500026480188264800880A30814204D10821AE
:100A60002448FFF7F0FE21E0204801882048008854
:100A70001430814204D108211E48FFF7E6FE15E03C
:100A80001B4800881C49098808441849098888427D
:100A90000CDC08211748FFF7D6FE00201349088018
:100AA0001049087042F20F701349088000200E4967
:100AB000087015E00B480078022811D108210D4874
:100AC000FFF7C1FE0020094908800649087042F27C
:100AD0000F70094908800020054908800249087004
:100AE00010BD000025000020060000205E00002050
:100AF0002C000020001C01403400002010B53148BB
:100B0000007800285CD030480078012842D12F4876
:100B10000088401C2D490880084601882C48008820
:100B2000401C814204D104212A48FFF78EFE2DE0AB
:100B300026480188264800880A30814204D10421D1
:100B40002448FFF780FE21E02048018820480088E3
:100B50001430814204D104211E48FFF776FE15E0CF
:100B60001B4800881C49098808441849098888429C
:100B70000CDC04211748FFF766FE002013490880AB
:100B80001049087042F20F701349088000200E4986
:100B9000087015E00B480078022811D104210D4897
:100BA000FFF751FE0020094908800649087042F20B
:100BB0000F70094908800020054908800249087023
:100BC00010BD00002600002007000020600000206B
:100BD0002E000020001C01403600002029B1064AEA
:100BE00092690243044B9A6104E0034A926982438A
:100BF000014B9A61704700000010024010B5F848A0
:100C0000007800287ED0F748007803287BDCF6487F
:100C1000007823281BD1F4484078242817D10120DC
:100C2000F249087000240EE0EF48005DF0490880AA
:100C300000BFEF48001F0088C0F3C0100028F8D0A4
:100C4000FFF772FB641CE74800788442ECDBE6485F
:100C50000078792806D1E4484078782802D101202C
:100C6000E4490870E0480078732806D1DE484078EF
:100C7000742802D10120DD490870DB480078702813
:100C80000DD1D9484078312809D10120DA490870BE
:100C90000020DA49088042F20F70D9490880D24812
:100CA000007870280DD1D0484078322809D1012031
:100CB000D44908700020D449088042F20F70D3490B
:100CC0000880C948007870280DD1C748407833287B
:100CD00009D10120CE4908700020CE49088042F297
:100CE0000F70CD490880C0480078702810D1BE48E8
:100CF000407834280CD10120C84908700020C84928
:100D0000088001E0A0E255E042F20F70C54908807A
:100D1000B548007873280AD1B3484078312806D105
:100D20000220B549087042F20F70B5490880AE48FC
:100D3000007873280AD1AC484078322806D10220C6
:100D4000B049087042F20F70B0490880A648007898
:100D500073280AD1A4484078332806D10220AC4930
:100D6000087042F20F70AC4908809F4800787328E1
:100D70000AD19D484078342806D10220A74908703E
:100D800042F20F70A749088097480078752806D16D
:100D900095484078762802D10120A34908709248EE
:100DA0000078762806D190484078752802D1002036
:100DB0009D4908708B480078092870D18A480078CE
:100DC0002328FAD18848C07830380A282ED2DFE8A4
:100DD00000F005090D1115191D2125290020934941
:100DE000087027E001209149087023E002208F4914
:100DF00008701FE003208D4908701BE004208B4918
:100E0000087017E005208949087013E0062087491B
:100E100008700FE00720854908700BE0082083491F
:100E2000087007E009208149087003E000207F492D
:100E3000087000BF00BF6C48007930380A282FD2F4
:100E4000DFE800F005090D1115191D2125290020E5
:100E50007749087028E001207549087024E00220D5
:100E60007349087020E00320714908701CE00420D9
:100E70006F49087018E005206D49087014E00620DD
:100E80006B49087010E00720694908700CE00820E1
:100E90006749087008E009206549087004E0CDE161
:100EA00000206349087000BF00BF4F4840793038C8
:100EB0000A282ED2DFE800F005090D1115191D21B1
:100EC000252900205B49087027E001205949087056
:100ED00023E00220574908701FE00320554908709D
:100EE0001BE004205349087017E0052051490870A1
:100EF00013E006204F4908700FE007204D490870A5
:100F00000BE008204B49087007E0092049490870A8
:100F100003E000204749087000BF00BF32488079D5
:100F200030380A282ED2DFE800F005090D11151916
:100F30001D21252900204049087027E001203E4955
:100F4000087023E002203C4908701FE003203A4962
:100F500008701BE004203849087017E00520364966
:100F6000087013E00620344908700FE0072032496A
:100F700008700BE008203049087007E009202E496E
:100F8000087003E000202C49087000BF00BF16481D
:100F9000C07930380A285FD2DFE800F005090D116A
:100FA00015191D52565A00202449087058E0012096
:100FB0002249087054E002202049087050E00320C4
:100FC0001E4908704CE004201C49087048E00520C8
:100FD0001A49087044E006201849087040E00000F3
:100FE00001000020000000206800002021000020F7
:100FF000043801401E0000202300002028000020AB
:1010000030000020240000202A00002032000020B0
:10101000250000202C0000203400002026000020A5
:101020002E000020360000203A0000204200002060
:1010300043000020440000203F000020400000202A
:101040000720824908700BE008208049087007E0FB
:1010500009207E49087003E000207C49087000BF29
:1010600000BF7B48007A30380A282ED2DFE800F033
:1010700005090D1115191D21252900207549087034
:1010800027E001207349087023E0022071490870AD
:101090001FE003206F4908701BE004206D490870B1
:1010A00017E005206B49087013E0062069490870B5
:1010B0000FE00720674908700BE0082065490870B9
:1010C00007E009206349087003E0002061490870C7
:1010D00000BF00BF5E484078702828D15C48807807
:1010E000312824D101205C4908705C4800784FF415
:1010F0007A7148435A490978642202FB0100594930
:1011000009780A2202FB01005749088057480078F5
:101110004FF47A7148434D490978642202FB01007B
:101120004C4909780A2202FB0100514908804848CD
:101130004078702828D146488078322824D1012070
:101140004C490870454800784FF47A714843444947
:101150000978642202FB0100424909780A2202FB55
:10116000010045490880414800784FF47A714843AE
:1011700036490978642202FB0100364909780A22BF
:1011800002FB01003D49088031484078702828D191
:101190002F488078332824D10120394908702F48FE
:1011A00000784FF47A7148432D490978642202FB94
:1011B00001002C4909780A2202FB0100314908800C
:1011C0002A4800784FF47A7148432049097864220C
:1011D00002FB01001F4909780A2202FB01002A498B
:1011E00008801B484078702828D119488078342816
:1011F00024D1012025490870184800784FF47A71ED
:10120000484317490978642202FB0100154909780F
:101210000A2202FB01001E490880144800784FF49E
:101220007A71484309490978642202FB010009499F
:1012300009780A2202FB010016490880002016499D
:1012400008701649087000BF10BD00004000002063
:101250006800002041000020230000204200002000
:101260004300002044000020280000203F00002010
:1012700030000020240000202A000020320000203E
:10128000250000202C000020340000202600002033
:101290002E00002036000020010000200000002069
:1012A000704710B500F002F810BD00000CB500202A
:1012B000019000903348006840F480303149086064
:1012C00000BF3048006800F4003000900198401CD6
:1012D0000190009818B90198B0F5A06FF1D1294894
:1012E000006800F4003010B10120009001E00020FF
:1012F00000900098012843D12348006840F0100076
:10130000214908600846006820F00300086008468C
:10131000006840F0020008601A48406819494860B7
:101320000846406848600846406840F4806048606D
:101330000846406820F47C1048600846406840F445
:10134000E81048600846006840F08070086000BF00
:101350000C48006800F000700028F9D00948406887
:1013600020F00300074948600846406840F002004A
:10137000486000BF0348406800F00C000828F9D11D
:101380000CBD000000100240002002407047000029
:1013900010B51348006840F0010011490860084684
:1013A0004068104908400E494860084600680E49E8
:1013B00008400B4908600846006820F48020086057
:1013C0000846406820F4FE0048604FF41F00886023
:1013D000FFF767FF4FF000600449086010BD000090
:1013E000001002400000FFF8FFFFF6FE08ED00E0ED
:1013F0000548008800F0010028B10348008820F06B
:10140000010001490880704710040040104800881E
:1014100000F00100D8B101200E4908700E49087093
:101420000E4908700E4908700E48007848B10D4802
:101430000078401EC0B20B49087010B901200A495B
:1014400008700348008820F00100014908807047B7
:1014500010080040040000200500002006000020C5
:10146000070000200A0000200100002010B500BF86
:1014700040F22551104800F04FF860B10E48001DB1
:101480000088C1B20D4802780078401C0B4B1870E0
:101490000B4881540FE040F22441074800F03CF82B
:1014A00048B105480088C4B20348001D0088C4B292
:1014B00001200449087010BD0038014000000020E0
:1014C00068000020010000200E49098801F0200179
:1014D000B1B10C49091D0988C8B20B4909786429C2
:1014E0000BDA0121094A117007490A780978491C69
:1014F000054B19700649885402E00121054A117014
:101500007047000000440040020000200B00002053
:10151000CC0000200300002070B502460024002308
:101520000025002040F66A16B14200D100BFC1F389
:10153000421501F01F03012606FA03F3012D02D123
:101540009689334006E0022D02D1168A334001E02D
:10155000968A33400C12012606FA04F416883440A9
:1015600013B10CB1012000E0002070BDF0B50346BE
:10157000002400260025002040F66A17B94200D159
:1015800000BF1846C1F3421401F01F06012707FAF5
:1015900006F5012C01D10C3004E0022C01D11030F1
:1015A00000E014301AB107682F43076002E00768B3
:1015B000AF430760F0BD00BFFEE7FEF7BDFEFFF7DB
:1015C0008BF8FEF763FEFEF77FFEFFF723F805209A
:1015D000FEF7E6FEFEF730FFFEF7ACFF4FF41651C4
:1015E0004820FEF739FF4FF416512420FEF7B2FFD2
:1015F000632141F61F40FEF7E7FE09E0FFF7FEFA20
:10160000FFF72CF9FFF79AF9FFF778FAFFF706FAD8
:10161000F4E7000090EA010F48BF81F0004100F1BB
:101620002E82421A3CBF801A89184FEAD0524FF0DE
:101630007F4C1CEA410FA2EBD15318BF9CEA026F0A
:1016400000F03B804FF0004C4CEA00204CEA0121B6
:1016500021FA03FC10EB0C0C1ED202F1FF325FEA00
:101660001C2040EBC25038BF70471CF07F0F4FEA80
:10167000400C18BFBCF17F4F38BF7047C3F1200347
:10168000994008BF20F00100BCF17F4F38BF704780
:10169000A0F1C04000F0DDB94FEA3C00000A40EB89
:1016A000C25028BF1CF0FF0F4FEA400CE6D018BF15
:1016B000BCF17F4F38BF7047EAE79CEA026F05D064
:1016C00010EA5C0F08BF00F00040704710B500F052
:1016D0007AF900BF64FBBE3E4FF47F0C1CEAD012C7
:1016E0001EBF1CEAD11392EA0C0F93EA0C0F00F014
:1016F000858090EA010F48BF42F4807240F4000CEC
:1017000041F400002CF07F4120F07F4000B5814281
:10171000A2EB03020FF2081CACEB504EC0F100002C
:101720009EF800E04FEA4E0E00FB0EFC38BF490069
:101730004FEA2C1C02F5FA020CFB0EF34FEACE1E08
:101740004FEA112C4FEAC1210EEB635E42EB2242BD
:101750000EFB0CFC4FEA1C5300FB03114FEA112C4B
:101760004FEA01310EFB0CFC4FEADC4C00FB0C1184
:10177000C14228BF09184CEB03335DF804EB10EBB2
:10178000410143EBC250B2F57C0F38BF704729D5F9
:1017900012F0F00F1CBF00F1C04000F00040704795
:1017A000008182838485868788898B8C8D8E8F913A
:1017B0009293959697999A9C9D9FA0A2A3A5A7A85E
:1017C000AAACAEB0B2B3B5B7B9BCBEC0C2C5C7C98A
:1017D000CCCED1D4D7D9DCDFE2E6E9ECF0F3F7FAEE
:1017E000FE0000004FEA400C0CF1807CBCF17E4F03
:1017F00028BF7047B0F1C04000F02BB990EA010F4C
:101800000CEAD11348BF42F48072624538BF634589
:1018100007D213F47F0F16D080EA010000F00040D9
:10182000704710B500F0CFF8097EFC3E00F005B817
:1018300080EA010000F00040704780EA010000F0FB
:10184000004000F006B912F47F0F04BF0248704751
:1018500080EA010000F0FDB80000C07FC10DD1F1A9
:101860009E0206DB4FEA002343F0004323FA02F016
:101870007047004207D54FEA4001B1F1FE4F02D256
:101880004FF00000704710B500F09DF84992248099
:10189000002070476FEA200070470000B0FA80F324
:1018A00010FA03F2C3F19D030AD0D90501EB12200F
:1018B000530638BF704700F1010008BF20F0010057
:1018C000704700004FF47F0C1CEAD0121EBF1CEAC8
:1018D000D11392EA0C0F93EA0C0F00F0478090EAC4
:1018E000010F48BF42F480724FF0004C4CEA0020D8
:1018F0004CEA012102EB0302A0FB0113A2F5000256
:10190000002918BF43F001035B0028BF4FEA3303EF
:1019100042EB22425FEA132C4CEBC2502EBFBCEBD1
:10192000436FB2F57C0F70474FEA036CBCF1004F78
:1019300008BF20F00100B2F57C0F38BF70470BD50F
:1019400082F0FF0212F5803FC8BF704700F1C0402F
:10195000D8BF00F00040704700F5000C5FEA4C0C67
:1019600048BF7047B0F1C04000F073B890EA010F73
:101970000CEAD11348BF42F48072624538BF634518
:1019800004D280EA010000F00040704710B500F07A
:101990001AF800BF8900013E00F007B800F009B84E
:1019A0005FEA410C5FEA1C6C08D080EA010000F09D
:1019B00050B85FEA400C5FEA1C6CF6D14FF0004073
:1019C000A0F5800070470EF1020E2EF0030E5EF8B7
:1019D000044B244204D44FEA4102B2F17F4F11D8A4
:1019E0004FEA4003B3F17F4F0CD80ED14FEAD07CC1
:1019F000B2F17F4F0CEB4C0C0CF1020C08BF4CEB1E
:101A0000D17C04E04FF0080C01E04FEAD17C0CEBF4
:101A10004C0324FA03F404F00704B4F1040C06D2D6
:101A20000EEB840CBDE810404CF0010C6047DFE881
:101A30000CF0070802024FF00040A0F5800010BD36
:101A40000846420018BFD2F1807288BF00F0004003
:101A500010BDFF2141EAD050C005704780F0004022
:101A600090EA010F7FF5DDAD81F0004100F007B88D
:101A700090EA010F48BF81F000413FF5D2AD421A14
:101A800004D882F00042A0EB020011444FEAD05289
:101A90004FF07F4C1CEA410FA2EBD15318BF9CEAD8
:101AA000026F4AD04FF0004C4CEA00204CEA012172
:101AB00021FA03FCB0EB0C0C0FD412F0FE0F36D061
:101AC0005FEA4C001DD5001240EBC25038BF704792
:101AD0001CF03F0F18BF70470BE0A2F101025FEA54
:101AE0001C2040EBC25038BF70471CF07F0F18BF5E
:101AF0007047C3F12003994014BF401E20F001003D
:101B0000704780084FEA122308BF7047B0FA80FC84
:101B1000A2EB0C02CCF1280C60FA0CF093EA122F25
:101B200004BF00EBC25070474FEAC3707047130AFE
:101B30005FEADC1008BF7047F6E79CEA026F04D04A
:101B400010EA5C0F08BF0020704710B5FFF73BFF9D
:101B500040DFF63E81F00040704700007C1B00082B
:101B600000000020680000006C010008E41B000871
:101B7000680000202807000088010008000000001D
:101B80000000000000000000000000000000000055
:101B900023232324242426262600000000000000FE
:101BA0000000000000000000000000000000000035
:101BB0000000000000000000000000000000000025
:101BC0000000000000000000000000000000000015
:101BD0000000000000000000000000000000000005
:041BE0000000000001
:04000005080001CD21
:00000001FF
