:020000040800F2
:1000000088070020CD010008570800084F080008A5
:100010005308000887020008D712000800000000FB
:10002000000000000000000000000000C10F0008F8
:100030008B0200080000000059080008AD100008FD
:10004000E7010008E7010008E7010008E7010008F0
:10005000E7010008E7010008E7010008E7010008E0
:10006000E7010008E7010008E7010008E7010008D0
:10007000E7010008E7010008E7010008E7010008C0
:10008000E7010008E7010008E7010008E7010008B0
:10009000E7010008E7010008E7010008E7010008A0
:1000A000E7010008E7010008E7010008E701000890
:1000B000E7010008111100082D110008E7010008F0
:1000C000E7010008E7010008E7010008E701000870
:1000D000E70100088D110008E9110008E701000898
:1000E000E7010008E7010008E7010008E701000850
:1000F000E7010008E7010008E7010008E701000840
:10010000E7010008E7010008E7010008E70100082F
:10011000E7010008E7010008E7010008E70100081F
:10012000E7010008E7010008E7010008E70100080F
:1001300000F002F800F03AF80AA090E8000C8244BF
:100140008344AAF10107DA4501D100F02FF8AFF29C
:10015000090EBAE80F0013F0010F18BFFB1A43F0A5
:10016000010318471817000038170000103A24BF81
:1001700078C878C1FAD8520724BF30C830C144BF0C
:1001800004680C607047000000230024002500264E
:10019000103A28BF78C1FBD8520728BF30C148BFEA
:1001A0000B6070471FB51FBD10B510BD00F031F8D2
:1001B0001146FFF7F7FF01F090F800F04FF803B495
:1001C000FFF7F2FF03BC00F057F800000948804732
:1001D00009480047FEE7FEE7FEE7FEE7FEE7FEE729
:1001E000FEE7FEE7FEE7FEE704480549054A064B41
:1001F00070470000B110000831010008880100209C
:10020000880700208803002088030020704770477B
:100210007047754600F02CF8AE4605006946534617
:1002200020F00700854618B020B5FFF7DDFFBDE8D8
:1002300020404FF000064FF000074FF000084FF04D
:10024000000B21F00701AC46ACE8C009ACE8C009DE
:10025000ACE8C009ACE8C0098D46704710B504464B
:10026000AFF300802046BDE81040FFF7A8BF0000B4
:10027000004870472801002001491820ABBEFEE766
:1002800026000200704700BFFEE770470C488069F7
:1002900040F008000A4988610A48006820F00F0011
:1002A000084908600846006840F0030008600548F7
:1002B0000830006820F480700249083108607047F7
:1002C00000100240040C01401348806940F04400D3
:1002D000114988611148006820F00F000F4908603B
:1002E0000846006840F0080008604FF480300B4971
:1002F000103108600A4800686FF31300084908606D
:100300000846006807490843054908605F2004491A
:1003100010310860704700000010024000080140E2
:1003200000180140888808004FF400100149086057
:1003300070470000100C01401648806940F04800EA
:10034000144988611448006820F47000124908605C
:100350000846006840F4401008601048006820F427
:1003600070000E4908600846006840F440100860BC
:1003700009481430006840F0200007491431086033
:1003800006481430006840F0200004491431086029
:100390007047000000100240000C014000180140AE
:1003A000014601F007021202054B18684FF6FF03E1
:1003B0001840044B18431043014B1860704700006D
:1003C0000CED00E00000FA05154AD26942F0040283
:1003D000134BDA61134A1080121F1180114A203A20
:1003E000128842F001020F4B203B1A800D4A2C3A32
:1003F000128842F001020B4B2C3B1A8045230A4A1B
:1004000013700A4A126842F080424FF0E023C3F8AA
:1004100000210022064B1A70064B1A70704700002C
:10042000001002402C0800401EE400E000E100E063
:100430000A0000200B0000200548006840F0200062
:100440004FF0E021C1F804013021024801707047EB
:1004500004E100E025E400E02DE9F05F05460E46EA
:10046000300101F0ABF881462D4905FB01F001F0A8
:10047000A5F88246494600F0BFFF0746384601F01E
:100480007DF884B2204601F099F88346394601F0A0
:1004900075F982464FF0834101F0A4F8814601F0DE
:1004A0006DF880464FF6FF7000EA041404EB080074
:1004B00084B21C48806940F004001A4988611A48D7
:1004C000006820F47F60184908600846006840F41E
:1004D0000B6008601348C06840F480401149C86050
:1004E0000846C06820F48040C8601048048042F28A
:1004F0000C000E49091D0880012240F224410B48DE
:10050000083800F0C3FE0948001D008840F02000B4
:100510000649091D0880002005490870BDE8F09FC4
:1005200040420F000010024004080140083801401A
:10053000010000200548006840F040004FF0E02135
:10054000C1F80401302102480170704704E100E065
:1005500026E400E02DE9F05F05460E46300101F08B
:100560002DF88146274905FB01F001F027F8824666
:10057000494600F041FF0746384600F0FFFF84B2CD
:10058000204601F01BF88346394601F0F7F8824611
:100590004FF0834101F026F8814600F0EFFF8046DE
:1005A0004FF6FF7000EA041404EB080084B216480A
:1005B000806940F00400144988611448006820F400
:1005C0007F40124908600846006840F40B4008600C
:1005D0000D48006940F480200B4908610846006915
:1005E00020F4802008610A48048042F20C00084987
:1005F000091D08800846008840F020000880BDE8FA
:10060000F09F000040420F0000100240000801402F
:1006100008440040072100202D4A126842F480322D
:100620002B4B1A6000BF2A4A1268C2F34042002ACC
:10063000F9D0274A526822F40032254B5A601A46F4
:10064000526842F480325A601A46526842EA814245
:100650005A601A46126842F080721A6000BF1C4A43
:100660001268520E002AFAD0194A526822F001028A
:10067000174B5A601A46526842F002025A6005E06F
:10068000134A5268C2F3870000F003000228F7D132
:100690000F4A526822F47C720D4B5A601A46526817
:1006A00042F480625A601A46526822F400525A603C
:1006B0003222084B1A60064AD26942F40032044BD7
:1006C000DA611A46926942F480429A6170470000EA
:1006D000001002400020024008B50121842000F0F3
:1006E0003FFA3F20ADF8000003208DF802001020F3
:1006F0008DF8030069460C4800F01AF83F210A48BB
:1007000000F0A1F88020ADF8000003208DF8020071
:1007100010208DF803006946044800F009F8802194
:10072000024800F090F808BD001C0140000801409C
:100730002DE9F04102460025002600200023002478
:10074000002791F803C00CF00F0591F803C00CF0DE
:10075000100CBCF1000F03D091F802C04CEA050563
:1007600091F800C0BCF1000F31D0146800202BE0DC
:100770004FF0010C0CFA00F3B1F800C00CEA0306CC
:100780009E4220D183004FF00F0C0CFA03F7BC43BC
:1007900005FA03FC4CEA040491F803C0BCF1280FED
:1007A00006D14FF0010C0CFA00FCC2F814C00AE0AC
:1007B00091F803C0BCF1480F05D14FF0010C0CFAC1
:1007C00000FCC2F810C0401C0828D1D31460B1F856
:1007D00000C0BCF1FF0F34DD546800202EE000F1B2
:1007E000080C4FF0010808FA0CF3B1F800C00CEA4D
:1007F00003069E4221D183004FF00F0C0CFA03F741
:10080000BC4305FA03FC4CEA040491F803C0BCF1B4
:10081000280F05D100F1080C08FA0CF8C2F8148072
:1008200091F803C0BCF1480F07D100F1080C4FF05C
:10083000010808FA0CF8C2F81080401C0828CED332
:100840005460BDE8F081416170470161704700BFAD
:10085000FEE700BFFEE770477047000010B52A486A
:10086000007801283AD12948007800284AD0284841
:100870000088401C2649088008460088012804D1C9
:1008800001212448FFF7E1FF24E0214800880A28DD
:1008900004D101211F48FFF7D6FF1BE01C48008848
:1008A000142804D101211B48FFF7CFFF12E018489C
:1008B00000881949098888420CDB01211548FFF797
:1008C000C2FF0020124908800F49087042F20F70E1
:1008D0001149088000200D49087013E00A4800788B
:1008E00002280FD101210B48FFF7ADFF0020084976
:1008F00008800549087042F20F70074908800020FF
:100900000249087010BD00002300002004000020F0
:1009100050000020001C01402800002010B52A488B
:10092000007801283AD12948007800284AD0284880
:100930000088401C2649088008460088012804D108
:1009400002212448FFF781FF24E0214800880A287B
:1009500004D102211F48FFF776FF1BE01C480088E6
:10096000142804D102211B48FFF76FFF12E018483A
:1009700000881949098888420CDB02211548FFF7D5
:1009800062FF0020124908800F49087042F20F7080
:100990001149088000200D49087013E00A480078CA
:1009A00002280FD102210B48FFF74DFF0020084914
:1009B00008800549087042F20F700749088000203E
:1009C0000249087010BD000024000020050000202E
:1009D00052000020001C01402A00002010B52A48C7
:1009E000007800284ED029480078012836D12848C0
:1009F0000088401C2649088008460088012804D148
:100A000008212448FFF721FF24E0214800880A2814
:100A100004D108211F48FFF716FF1BE01C4800887F
:100A2000142804D108211B48FFF70FFF12E01848D3
:100A300000881949098888420CDB08211548FFF70E
:100A400002FF0020124908800F49087042F20F701F
:100A50001149088000200D49087013E00A48007809
:100A600002280FD108210B48FFF7EDFE00200849AE
:100A700008800549087042F20F700749088000207D
:100A80000249087010BD000025000020060000206B
:100A900054000020001C01402C00002010B52A4802
:100AA000007800284ED029480078012836D12848FF
:100AB0000088401C2649088008460088012804D187
:100AC00004212448FFF7C1FE24E0214800880A28B9
:100AD00004D104211F48FFF7B6FE1BE01C48008824
:100AE000142804D104211B48FFF7AFFE12E0184878
:100AF00000881949098888420CDB04211548FFF752
:100B0000A2FE0020124908800F49087042F20F70BF
:100B10001249088000200D49087013E00A48007847
:100B200002280FD104210B48FFF78DFE0020084951
:100B300008800549087042F20F70084908800020BB
:100B40000249087010BD00002600002007000020A8
:100B500056000020001C01402C0000202E00002028
:100B600029B1064A92690243044B9A6104E0034AA0
:100B700092698243014B9A61704700000010024065
:100B800010B5FD48007800287ED0FC480078032886
:100B90007BDCFB48007823281BD1F94840782428C7
:100BA00017D10120F749087000240EE0F448005DD9
:100BB000F549088000BFF448001F0088C0F3C0104A
:100BC0000028F8D0FFF7B0FB641CEC4800788442A2
:100BD000ECDBEB480078792806D1E94840787828A2
:100BE00002D10120E9490870E5480078732806D150
:100BF000E3484078742802D10120E2490870E048B7
:100C0000007870280AD1DE484078312806D10120CA
:100C1000DF49087042F20F70DE490880D84800783A
:100C200070280AD1D6484078322806D10120DA4906
:100C3000087042F20F70D9490880D14800787028B6
:100C40000AD1CF484078332806D10120D449087012
:100C500042F20F70D3490880C948007870280AD141
:100C6000C7484078342806D10120CF49087042F2A5
:100C70000F70CE490880C248007873280DD1C04853
:100C80004078312809D101E074E149E00220C049EF
:100C9000087042F20F70BF490880B9480078732885
:100CA0000AD1B7484078322806D10220BA490870E4
:100CB00042F20F70B9490880B148007873280AD110
:100CC000AF484078332806D10220B549087042F277
:100CD0000F70B4490880AA48007873280AD1A84840
:100CE0004078342806D10220AF49087042F20F70D4
:100CF000AE490880A2480078752806D1A0484078FF
:100D0000762802D10120AA4908709D4800787628EB
:100D100006D19B484078752802D10020A44908706C
:100D200096480078062870D1954800782328FAD193
:100D30009348C07830380A282ED2DFE800F0050941
:100D40000D1115191D21252900209A49087027E049
:100D500001209849087023E00220964908701FE09E
:100D60000320944908701BE004209249087017E0A2
:100D700005209049087013E006208E4908700FE0A6
:100D800007208C4908700BE008208A49087007E0AA
:100D900009208849087003E000208649087000BFD8
:100DA00000BF7748007930380A282FD2DFE800F0FA
:100DB00005090D1115191D21252900207E490870EE
:100DC00028E001207C49087024E002207A4908705C
:100DD00020E00320784908701CE004207649087060
:100DE00018E005207449087014E006207249087064
:100DF00010E00720704908700CE008206E49087068
:100E000008E009206C49087004E0ADE000206A4960
:100E1000087000BF00BF5A48407930380A282ED2E7
:100E2000DFE800F005090D1115191D212529002005
:100E30006249087027E001206049087023E0022021
:100E40005E4908701FE003205C4908701BE0042025
:100E50005A49087017E005205849087013E0062029
:100E6000564908700FE00720544908700BE008202D
:100E70005249087007E009205049087003E000203B
:100E80004E49087000BF00BF3D484078702817D118
:100E90003B488078312813D101203D4908704548EE
:100EA00000784FF47A71484343490978642202FB81
:100EB0000100424909780A2202FB010035490880F5
:100EC0002F484078702817D12D488078322813D1C8
:100ED000012031490870374800784FF47A7148434F
:100EE00035490978642202FB0100344909780A2255
:100EF00002FB01002949088021484078702817D159
:100F00001F488078332813D10120254908702948CB
:100F100000784FF47A71484327490978642202FB2C
:100F20000100264909780A2202FB01001D490880B8
:100F300013484078702817D111488078342813D18D
:100F40000120194908701B4800784FF47A71484312
:100F500019490978642202FB0100184909780A221C
:100F600002FB010011490880002003490870034971
:100F7000087000BF10BD000001000020000000202C
:100F80006000002021000020043801401E000020E5
:100F90002300002028000020240000202A00002038
:100FA000250000202C000020260000202E0000201C
:100FB00032000020370000203800002039000020D7
:100FC000704710B500F002F810BD00000CB500200D
:100FD000019000903348006840F480303149086047
:100FE00000BF3048006800F4003000900198401CB9
:100FF0000190009818B90198B0F5A06FF1D1294877
:10100000006800F4003010B10120009001E00020E1
:1010100000900098012843D12348006840F0100058
:10102000214908600846006820F00300086008466F
:10103000006840F0020008601A484068194948609A
:101040000846406848600846406840F48060486050
:101050000846406820F47C1048600846406840F428
:10106000E81048600846006840F08070086000BFE3
:101070000C48006800F000700028F9D0094840686A
:1010800020F00300074948600846406840F002002D
:10109000486000BF0348406800F00C000828F9D100
:1010A0000CBD00000010024000200240704700000C
:1010B00010B51348006840F0010011490860084667
:1010C0004068104908400E494860084600680E49CB
:1010D00008400B4908600846006820F4802008603A
:1010E0000846406820F4FE0048604FF41F00886006
:1010F000FFF767FF4FF000600449086010BD000073
:10110000001002400000FFF8FFFFF6FE08ED00E0CF
:101110000548008800F0010028B10348008820F04D
:101120000100014908807047100400401048008801
:1011300000F00100D8B101200E4908700E49087076
:101140000E4908700E4908700E48007848B10D48E5
:101150000078401EC0B20B49087010B901200A493E
:1011600008700348008820F001000149088070479A
:1011700010080040040000200500002006000020A8
:10118000070000200A0000200100002010B500BF69
:1011900040F22551104800F04FF860B10E48001D94
:1011A0000088C1B20D4802780078401C0B4B1870C3
:1011B0000B4881540FE040F22441074800F03CF80E
:1011C00048B105480088C4B20348001D0088C4B275
:1011D00001200449087010BD0038014000000020C3
:1011E00060000020010000200E49098801F0200164
:1011F000B1B10C49091D0988C8B20B4909786429A5
:101200000BDA0121094A117007490A780978491C4B
:10121000054B19700649885402E00121054A1170F6
:101220007047000000440040020000200B00002036
:10123000C40000200300002070B5024600240023F3
:101240000025002040F66A16B14200D100BFC1F36C
:10125000421501F01F03012606FA03F3012D02D106
:101260009689334006E0022D02D1168A334001E010
:10127000968A33400C12012606FA04F4168834408C
:1012800013B10CB1012000E0002070BDF0B50346A1
:10129000002400260025002040F66A17B94200D13C
:1012A00000BF1846C1F3421401F01F06012707FAD8
:1012B00006F5012C01D10C3004E0022C01D11030D4
:1012C00000E014301AB107682F43076002E0076896
:1012D000AF430760F0BD00BFFEE7FFF72DF8FFF753
:1012E000FBF9FEF7D3FFFEF7EFFFFFF793F90520B9
:1012F000FFF756F8FFF7A0F8FFF71CF94FF4165167
:101300004820FFF7A9F84FF416512420FFF722F9DF
:10131000632141F61F40FFF757F809E0FFF730FC63
:10132000FFF79CFAFFF7FAFAFFF7B8FBFFF756FB57
:10133000F4E7000090EA010F48BF81F0004100F19E
:101340002E82421A3CBF801A89184FEAD0524FF0C1
:101350007F4C1CEA410FA2EBD15318BF9CEA026FED
:1013600000F03B804FF0004C4CEA00204CEA012199
:1013700021FA03FC10EB0C0C1ED202F1FF325FEAE3
:101380001C2040EBC25038BF70471CF07F0F4FEA63
:10139000400C18BFBCF17F4F38BF7047C3F120032A
:1013A000994008BF20F00100BCF17F4F38BF704763
:1013B000A0F1C04000F0DDB94FEA3C00000A40EB6C
:1013C000C25028BF1CF0FF0F4FEA400CE6D018BFF8
:1013D000BCF17F4F38BF7047EAE79CEA026F05D047
:1013E00010EA5C0F08BF00F00040704710B500F035
:1013F0007AF900BF64FBBE3E4FF47F0C1CEAD012AA
:101400001EBF1CEAD11392EA0C0F93EA0C0F00F0F6
:10141000858090EA010F48BF42F4807240F4000CCE
:1014200041F400002CF07F4120F07F4000B5814264
:10143000A2EB03020FF2081CACEB504EC0F100000F
:101440009EF800E04FEA4E0E00FB0EFC38BF49004C
:101450004FEA2C1C02F5FA020CFB0EF34FEACE1EEB
:101460004FEA112C4FEAC1210EEB635E42EB2242A0
:101470000EFB0CFC4FEA1C5300FB03114FEA112C2E
:101480004FEA01310EFB0CFC4FEADC4C00FB0C1167
:10149000C14228BF09184CEB03335DF804EB10EB95
:1014A000410143EBC250B2F57C0F38BF704729D5DC
:1014B00012F0F00F1CBF00F1C04000F00040704778
:1014C000008182838485868788898B8C8D8E8F911D
:1014D0009293959697999A9C9D9FA0A2A3A5A7A841
:1014E000AAACAEB0B2B3B5B7B9BCBEC0C2C5C7C96D
:1014F000CCCED1D4D7D9DCDFE2E6E9ECF0F3F7FAD1
:10150000FE0000004FEA400C0CF1807CBCF17E4FE5
:1015100028BF7047B0F1C04000F02BB990EA010F2E
:101520000CEAD11348BF42F48072624538BF63456C
:1015300007D213F47F0F16D080EA010000F00040BC
:10154000704710B500F0CFF8097EFC3E00F005B8FA
:1015500080EA010000F00040704780EA010000F0DE
:10156000004000F006B912F47F0F04BF0248704734
:1015700080EA010000F0FDB80000C07FC10DD1F18C
:101580009E0206DB4FEA002343F0004323FA02F0F9
:101590007047004207D54FEA4001B1F1FE4F02D239
:1015A0004FF00000704710B500F09DF8499224807C
:1015B000002070476FEA200070470000B0FA80F307
:1015C00010FA03F2C3F19D030AD0D90501EB1220F2
:1015D000530638BF704700F1010008BF20F001003A
:1015E000704700004FF47F0C1CEAD0121EBF1CEAAB
:1015F000D11392EA0C0F93EA0C0F00F0478090EAA7
:10160000010F48BF42F480724FF0004C4CEA0020BA
:101610004CEA012102EB0302A0FB0113A2F5000238
:10162000002918BF43F001035B0028BF4FEA3303D2
:1016300042EB22425FEA132C4CEBC2502EBFBCEBB4
:10164000436FB2F57C0F70474FEA036CBCF1004F5B
:1016500008BF20F00100B2F57C0F38BF70470BD5F2
:1016600082F0FF0212F5803FC8BF704700F1C04012
:10167000D8BF00F00040704700F5000C5FEA4C0C4A
:1016800048BF7047B0F1C04000F073B890EA010F56
:101690000CEAD11348BF42F48072624538BF6345FB
:1016A00004D280EA010000F00040704710B500F05D
:1016B0001AF800BF8900013E00F007B800F009B831
:1016C0005FEA410C5FEA1C6C08D080EA010000F080
:1016D00050B85FEA400C5FEA1C6CF6D14FF0004056
:1016E000A0F5800070470EF1020E2EF0030E5EF89A
:1016F000044B244204D44FEA4102B2F17F4F11D887
:101700004FEA4003B3F17F4F0CD80ED14FEAD07CA3
:10171000B2F17F4F0CEB4C0C0CF1020C08BF4CEB00
:10172000D17C04E04FF0080C01E04FEAD17C0CEBD7
:101730004C0324FA03F404F00704B4F1040C06D2B9
:101740000EEB840CBDE810404CF0010C6047DFE864
:101750000CF0070802024FF00040A0F5800010BD19
:101760000846420018BFD2F1807288BF00F00040E6
:1017700010BDFF2141EAD050C005704780F0004005
:1017800090EA010F7FF5DDAD81F0004100F007B870
:1017900090EA010F48BF81F000413FF5D2AD421AF7
:1017A00004D882F00042A0EB020011444FEAD0526C
:1017B0004FF07F4C1CEA410FA2EBD15318BF9CEABB
:1017C000026F4AD04FF0004C4CEA00204CEA012155
:1017D00021FA03FCB0EB0C0C0FD412F0FE0F36D044
:1017E0005FEA4C001DD5001240EBC25038BF704775
:1017F0001CF03F0F18BF70470BE0A2F101025FEA37
:101800001C2040EBC25038BF70471CF07F0F18BF40
:101810007047C3F12003994014BF401E20F001001F
:10182000704780084FEA122308BF7047B0FA80FC67
:10183000A2EB0C02CCF1280C60FA0CF093EA122F08
:1018400004BF00EBC25070474FEAC3707047130AE1
:101850005FEADC1008BF7047F6E79CEA026F04D02D
:1018600010EA5C0F08BF0020704710B5FFF73BFF80
:1018700040DFF63E81F00040704700009C180008F1
:1018800000000020600000006C010008FC18000847
:101890006000002028070000880100080000000008
:1018A0000000000000000000000000000000000038
:1018B00023232324242426262600000000000000E1
:1018C0000000000000000000000000000000000018
:1018D0000000000000000000000000000000000008
:1018E00000000000000000000000000000000000F8
:0C18F000000000000000000000000000EC
:04000005080001CD21
:00000001FF
